{
  "contractName": "DocumentVerification",
  "abi": [
    {
      "anonymous": false,
      "inputs": [
        {
          "indexed": false,
          "internalType": "string",
          "name": "hash",
          "type": "string"
        }
      ],
      "name": "DocumentRevoked",
      "type": "event"
    },
    {
      "anonymous": false,
      "inputs": [
        {
          "indexed": false,
          "internalType": "string",
          "name": "hash",
          "type": "string"
        }
      ],
      "name": "DocumentUploaded",
      "type": "event"
    },
    {
      "inputs": [
        {
          "internalType": "string",
          "name": "hash",
          "type": "string"
        }
      ],
      "name": "uploadDocument",
      "outputs": [],
      "stateMutability": "nonpayable",
      "type": "function"
    },
    {
      "inputs": [
        {
          "internalType": "string",
          "name": "hash",
          "type": "string"
        }
      ],
      "name": "verifyDocument",
      "outputs": [
        {
          "internalType": "bool",
          "name": "",
          "type": "bool"
        }
      ],
      "stateMutability": "view",
      "type": "function",
      "constant": true
    },
    {
      "inputs": [
        {
          "internalType": "string",
          "name": "hash",
          "type": "string"
        }
      ],
      "name": "revokeDocument",
      "outputs": [],
      "stateMutability": "nonpayable",
      "type": "function"
    }
  ],
  "bytecode": "0x608060405234801561001057600080fd5b50610785806100206000396000f3fe608060405234801561001057600080fd5b50600436106100415760003560e01c8063029ba59b14610046578063b7f5576d14610062578063beee5eb71461007e575b600080fd5b610060600480360381019061005b919061040b565b6100ae565b005b61007c6004803603810190610077919061040b565b610235565b005b6100986004803603810190610093919061040b565b61036f565b6040516100a5919061059c565b60405180910390f35b6000816040516100be9190610585565b908152602001604051809103902060009054906101000a900460ff16610119576040517f08c379a0000000000000000000000000000000000000000000000000000000008152600401610110906105f9565b60405180910390fd5b3373ffffffffffffffffffffffffffffffffffffffff166001826040516101409190610585565b908152602001604051809103902060009054906101000a900473ffffffffffffffffffffffffffffffffffffffff1673ffffffffffffffffffffffffffffffffffffffff16146101c5576040517f08c379a00000000000000000000000000000000000000000000000000000000081526004016101bc90610619565b60405180910390fd5b600080826040516101d69190610585565b908152602001604051809103902060006101000a81548160ff0219169083151502179055507fb39143ea60a5a5412de9b664f527b5520e36c68532826fd2cf34b68588a918638160405161022a91906105b7565b60405180910390a150565b6000816040516102459190610585565b908152602001604051809103902060009054906101000a900460ff16156102a1576040517f08c379a0000000000000000000000000000000000000000000000000000000008152600401610298906105d9565b60405180910390fd5b60016000826040516102b39190610585565b908152602001604051809103902060006101000a81548160ff021916908315150217905550336001826040516102e99190610585565b908152602001604051809103902060006101000a81548173ffffffffffffffffffffffffffffffffffffffff021916908373ffffffffffffffffffffffffffffffffffffffff1602179055507f083a65466dc8e9915860c1c0920a344e1193eea221507abf792886368434b1588160405161036491906105b7565b60405180910390a150565b600080826040516103809190610585565b908152602001604051809103902060009054906101000a900460ff169050919050565b60006103b66103b18461066a565b610639565b9050828152602081018484840111156103ce57600080fd5b6103d98482856106cd565b509392505050565b600082601f8301126103f257600080fd5b81356104028482602086016103a3565b91505092915050565b60006020828403121561041d57600080fd5b600082013567ffffffffffffffff81111561043757600080fd5b610443848285016103e1565b91505092915050565b610455816106c1565b82525050565b60006104668261069a565b61047081856106a5565b93506104808185602086016106dc565b6104898161073e565b840191505092915050565b600061049f8261069a565b6104a981856106b6565b93506104b98185602086016106dc565b80840191505092915050565b60006104d26017836106a5565b91507f446f63756d656e7420616c7265616479206578697374730000000000000000006000830152602082019050919050565b60006105126017836106a5565b91507f446f63756d656e7420646f6573206e6f742065786973740000000000000000006000830152602082019050919050565b6000610552601d836106a5565b91507f4e6f7420746865206f776e6572206f662074686520646f63756d656e740000006000830152602082019050919050565b60006105918284610494565b915081905092915050565b60006020820190506105b1600083018461044c565b92915050565b600060208201905081810360008301526105d1818461045b565b905092915050565b600060208201905081810360008301526105f2816104c5565b9050919050565b6000602082019050818103600083015261061281610505565b9050919050565b6000602082019050818103600083015261063281610545565b9050919050565b6000604051905081810181811067ffffffffffffffff821117156106605761065f61070f565b5b8060405250919050565b600067ffffffffffffffff8211156106855761068461070f565b5b601f19601f8301169050602081019050919050565b600081519050919050565b600082825260208201905092915050565b600081905092915050565b60008115159050919050565b82818337600083830152505050565b60005b838110156106fa5780820151818401526020810190506106df565b83811115610709576000848401525b50505050565b7f4e487b7100000000000000000000000000000000000000000000000000000000600052604160045260246000fd5b6000601f19601f830116905091905056fea2646970667358221220b2f787b73ee88a4a1789461813a759c5fa4e04be220e31ccd67c3f9522e888f564736f6c63430008000033",
  "immutableReferences": {},
  "source": "pragma solidity ^0.8.0;\r\n\r\ncontract DocumentVerification {\r\n    mapping(string => bool) private documentHashes;\r\n    mapping(string => address) private documentOwners;\r\n\r\n    event DocumentUploaded(string hash);\r\n    event DocumentRevoked(string hash);\r\n\r\n    function uploadDocument(string memory hash) public {\r\n        require(!documentHashes[hash], \"Document already exists\");\r\n        documentHashes[hash] = true;\r\n        documentOwners[hash] = msg.sender;\r\n        emit DocumentUploaded(hash);\r\n    }\r\n\r\n    function verifyDocument(string memory hash) public view returns (bool) {\r\n        return documentHashes[hash];\r\n    }\r\n\r\n    function revokeDocument(string memory hash) public {\r\n        require(documentHashes[hash], \"Document does not exist\");\r\n        require(documentOwners[hash] == msg.sender, \"Not the owner of the document\");\r\n        documentHashes[hash] = false;\r\n        emit DocumentRevoked(hash);\r\n    }\r\n}\r\n",
  "sourcePath": "C:\\Users\\vinay\\doc_verification\\contracts\\DocumentVerification.sol",
  "compiler": {
    "name": "solc",
    "version": "0.8.0+commit.c7dfd78e.Emscripten.clang"
  },
  "schemaVersion": "3.4.16",
  "updatedAt": "2024-06-06T13:40:40.749Z",
  "networkType": "ethereum",
  "devdoc": {
    "kind": "dev",
    "methods": {},
    "version": 1
  },
  "userdoc": {
    "kind": "user",
    "methods": {},
    "version": 1
  }
}